{
  "address": "0xDc15ED94895f3B825ef643A50405C89626b584dF",
  "abi": [
    {
      "inputs": [
        {
          "internalType": "string",
          "name": "_name",
          "type": "string"
        },
        {
          "internalType": "string",
          "name": "_symbol",
          "type": "string"
        }
      ],
      "stateMutability": "nonpayable",
      "type": "constructor"
    },
    {
      "inputs": [
        {
          "internalType": "address",
          "name": "sender",
          "type": "address"
        },
        {
          "internalType": "uint256",
          "name": "tokenId",
          "type": "uint256"
        },
        {
          "internalType": "address",
          "name": "owner",
          "type": "address"
        }
      ],
      "name": "ERC721IncorrectOwner",
      "type": "error"
    },
    {
      "inputs": [
        {
          "internalType": "address",
          "name": "operator",
          "type": "address"
        },
        {
          "internalType": "uint256",
          "name": "tokenId",
          "type": "uint256"
        }
      ],
      "name": "ERC721InsufficientApproval",
      "type": "error"
    },
    {
      "inputs": [
        {
          "internalType": "address",
          "name": "approver",
          "type": "address"
        }
      ],
      "name": "ERC721InvalidApprover",
      "type": "error"
    },
    {
      "inputs": [
        {
          "internalType": "address",
          "name": "operator",
          "type": "address"
        }
      ],
      "name": "ERC721InvalidOperator",
      "type": "error"
    },
    {
      "inputs": [
        {
          "internalType": "address",
          "name": "owner",
          "type": "address"
        }
      ],
      "name": "ERC721InvalidOwner",
      "type": "error"
    },
    {
      "inputs": [
        {
          "internalType": "address",
          "name": "receiver",
          "type": "address"
        }
      ],
      "name": "ERC721InvalidReceiver",
      "type": "error"
    },
    {
      "inputs": [
        {
          "internalType": "address",
          "name": "sender",
          "type": "address"
        }
      ],
      "name": "ERC721InvalidSender",
      "type": "error"
    },
    {
      "inputs": [
        {
          "internalType": "uint256",
          "name": "tokenId",
          "type": "uint256"
        }
      ],
      "name": "ERC721NonexistentToken",
      "type": "error"
    },
    {
      "inputs": [],
      "name": "EnforcedPause",
      "type": "error"
    },
    {
      "inputs": [],
      "name": "ExpectedPause",
      "type": "error"
    },
    {
      "inputs": [
        {
          "internalType": "address",
          "name": "owner",
          "type": "address"
        }
      ],
      "name": "OwnableInvalidOwner",
      "type": "error"
    },
    {
      "inputs": [
        {
          "internalType": "address",
          "name": "account",
          "type": "address"
        }
      ],
      "name": "OwnableUnauthorizedAccount",
      "type": "error"
    },
    {
      "inputs": [],
      "name": "ReentrancyGuardReentrantCall",
      "type": "error"
    },
    {
      "anonymous": false,
      "inputs": [
        {
          "indexed": true,
          "internalType": "address",
          "name": "owner",
          "type": "address"
        },
        {
          "indexed": true,
          "internalType": "address",
          "name": "approved",
          "type": "address"
        },
        {
          "indexed": true,
          "internalType": "uint256",
          "name": "tokenId",
          "type": "uint256"
        }
      ],
      "name": "Approval",
      "type": "event"
    },
    {
      "anonymous": false,
      "inputs": [
        {
          "indexed": true,
          "internalType": "address",
          "name": "owner",
          "type": "address"
        },
        {
          "indexed": true,
          "internalType": "address",
          "name": "operator",
          "type": "address"
        },
        {
          "indexed": false,
          "internalType": "bool",
          "name": "approved",
          "type": "bool"
        }
      ],
      "name": "ApprovalForAll",
      "type": "event"
    },
    {
      "anonymous": false,
      "inputs": [
        {
          "indexed": true,
          "internalType": "address",
          "name": "previousOwner",
          "type": "address"
        },
        {
          "indexed": true,
          "internalType": "address",
          "name": "newOwner",
          "type": "address"
        }
      ],
      "name": "OwnershipTransferred",
      "type": "event"
    },
    {
      "anonymous": false,
      "inputs": [
        {
          "indexed": false,
          "internalType": "address",
          "name": "account",
          "type": "address"
        }
      ],
      "name": "Paused",
      "type": "event"
    },
    {
      "anonymous": false,
      "inputs": [
        {
          "indexed": true,
          "internalType": "address",
          "name": "from",
          "type": "address"
        },
        {
          "indexed": true,
          "internalType": "address",
          "name": "to",
          "type": "address"
        },
        {
          "indexed": true,
          "internalType": "uint256",
          "name": "tokenId",
          "type": "uint256"
        }
      ],
      "name": "Transfer",
      "type": "event"
    },
    {
      "anonymous": false,
      "inputs": [
        {
          "indexed": false,
          "internalType": "address",
          "name": "account",
          "type": "address"
        }
      ],
      "name": "Unpaused",
      "type": "event"
    },
    {
      "inputs": [],
      "name": "URI",
      "outputs": [
        {
          "internalType": "string",
          "name": "",
          "type": "string"
        }
      ],
      "stateMutability": "view",
      "type": "function"
    },
    {
      "inputs": [
        {
          "internalType": "address",
          "name": "to",
          "type": "address"
        },
        {
          "internalType": "uint256",
          "name": "tokenId",
          "type": "uint256"
        }
      ],
      "name": "approve",
      "outputs": [],
      "stateMutability": "nonpayable",
      "type": "function"
    },
    {
      "inputs": [
        {
          "internalType": "address",
          "name": "owner",
          "type": "address"
        }
      ],
      "name": "balanceOf",
      "outputs": [
        {
          "internalType": "uint256",
          "name": "",
          "type": "uint256"
        }
      ],
      "stateMutability": "view",
      "type": "function"
    },
    {
      "inputs": [
        {
          "internalType": "uint256",
          "name": "tokenId",
          "type": "uint256"
        }
      ],
      "name": "burn",
      "outputs": [],
      "stateMutability": "nonpayable",
      "type": "function"
    },
    {
      "inputs": [
        {
          "internalType": "uint256",
          "name": "tokenId",
          "type": "uint256"
        }
      ],
      "name": "getApproved",
      "outputs": [
        {
          "internalType": "address",
          "name": "",
          "type": "address"
        }
      ],
      "stateMutability": "view",
      "type": "function"
    },
    {
      "inputs": [
        {
          "internalType": "address",
          "name": "owner",
          "type": "address"
        },
        {
          "internalType": "address",
          "name": "operator",
          "type": "address"
        }
      ],
      "name": "isApprovedForAll",
      "outputs": [
        {
          "internalType": "bool",
          "name": "",
          "type": "bool"
        }
      ],
      "stateMutability": "view",
      "type": "function"
    },
    {
      "inputs": [
        {
          "internalType": "address",
          "name": "_to",
          "type": "address"
        }
      ],
      "name": "mint",
      "outputs": [],
      "stateMutability": "nonpayable",
      "type": "function"
    },
    {
      "inputs": [],
      "name": "name",
      "outputs": [
        {
          "internalType": "string",
          "name": "",
          "type": "string"
        }
      ],
      "stateMutability": "view",
      "type": "function"
    },
    {
      "inputs": [],
      "name": "owner",
      "outputs": [
        {
          "internalType": "address",
          "name": "",
          "type": "address"
        }
      ],
      "stateMutability": "view",
      "type": "function"
    },
    {
      "inputs": [
        {
          "internalType": "uint256",
          "name": "tokenId",
          "type": "uint256"
        }
      ],
      "name": "ownerOf",
      "outputs": [
        {
          "internalType": "address",
          "name": "",
          "type": "address"
        }
      ],
      "stateMutability": "view",
      "type": "function"
    },
    {
      "inputs": [],
      "name": "pause",
      "outputs": [],
      "stateMutability": "nonpayable",
      "type": "function"
    },
    {
      "inputs": [],
      "name": "paused",
      "outputs": [
        {
          "internalType": "bool",
          "name": "",
          "type": "bool"
        }
      ],
      "stateMutability": "view",
      "type": "function"
    },
    {
      "inputs": [],
      "name": "renounceOwnership",
      "outputs": [],
      "stateMutability": "nonpayable",
      "type": "function"
    },
    {
      "inputs": [
        {
          "internalType": "address",
          "name": "from",
          "type": "address"
        },
        {
          "internalType": "address",
          "name": "to",
          "type": "address"
        },
        {
          "internalType": "uint256",
          "name": "tokenId",
          "type": "uint256"
        }
      ],
      "name": "safeTransferFrom",
      "outputs": [],
      "stateMutability": "nonpayable",
      "type": "function"
    },
    {
      "inputs": [
        {
          "internalType": "address",
          "name": "from",
          "type": "address"
        },
        {
          "internalType": "address",
          "name": "to",
          "type": "address"
        },
        {
          "internalType": "uint256",
          "name": "tokenId",
          "type": "uint256"
        },
        {
          "internalType": "bytes",
          "name": "_data",
          "type": "bytes"
        }
      ],
      "name": "safeTransferFrom",
      "outputs": [],
      "stateMutability": "nonpayable",
      "type": "function"
    },
    {
      "inputs": [
        {
          "internalType": "address",
          "name": "operator",
          "type": "address"
        },
        {
          "internalType": "bool",
          "name": "approved",
          "type": "bool"
        }
      ],
      "name": "setApprovalForAll",
      "outputs": [],
      "stateMutability": "nonpayable",
      "type": "function"
    },
    {
      "inputs": [
        {
          "internalType": "string",
          "name": "_URI",
          "type": "string"
        }
      ],
      "name": "setURI",
      "outputs": [],
      "stateMutability": "nonpayable",
      "type": "function"
    },
    {
      "inputs": [
        {
          "internalType": "bytes4",
          "name": "interfaceId",
          "type": "bytes4"
        }
      ],
      "name": "supportsInterface",
      "outputs": [
        {
          "internalType": "bool",
          "name": "",
          "type": "bool"
        }
      ],
      "stateMutability": "view",
      "type": "function"
    },
    {
      "inputs": [],
      "name": "symbol",
      "outputs": [
        {
          "internalType": "string",
          "name": "",
          "type": "string"
        }
      ],
      "stateMutability": "view",
      "type": "function"
    },
    {
      "inputs": [
        {
          "internalType": "uint256",
          "name": "tokenId",
          "type": "uint256"
        }
      ],
      "name": "tokenURI",
      "outputs": [
        {
          "internalType": "string",
          "name": "",
          "type": "string"
        }
      ],
      "stateMutability": "view",
      "type": "function"
    },
    {
      "inputs": [],
      "name": "totalSupply",
      "outputs": [
        {
          "internalType": "uint256",
          "name": "",
          "type": "uint256"
        }
      ],
      "stateMutability": "view",
      "type": "function"
    },
    {
      "inputs": [
        {
          "internalType": "address",
          "name": "from",
          "type": "address"
        },
        {
          "internalType": "address",
          "name": "to",
          "type": "address"
        },
        {
          "internalType": "uint256",
          "name": "tokenId",
          "type": "uint256"
        }
      ],
      "name": "transferFrom",
      "outputs": [],
      "stateMutability": "nonpayable",
      "type": "function"
    },
    {
      "inputs": [
        {
          "internalType": "address",
          "name": "newOwner",
          "type": "address"
        }
      ],
      "name": "transferOwnership",
      "outputs": [],
      "stateMutability": "nonpayable",
      "type": "function"
    },
    {
      "inputs": [],
      "name": "unpause",
      "outputs": [],
      "stateMutability": "nonpayable",
      "type": "function"
    }
  ],
  "transactionHash": "0x17ff0287e5a3a544302cd71468edb6be67401597812f3e21a085776356c8370e",
  "args": [
    "Mock Robot",
    "MRB"
  ],
  "numDeployments": 2,
  "solcInputHash": "f9bf013205d7613a4276581020c8fa53",
  "bytecode": "0x60806040523480156200001157600080fd5b5060405162002fd938038062002fd9833981810160405281019062000037919062000367565b818133600073ffffffffffffffffffffffffffffffffffffffff168173ffffffffffffffffffffffffffffffffffffffff1603620000af5760006040517f1e4fbdf7000000000000000000000000000000000000000000000000000000008152600401620000a6919062000431565b60405180910390fd5b620000c0816200011060201b60201c565b5060008060146101000a81548160ff021916908315150217905550600180819055508160029081620000f3919062000699565b50806003908162000105919062000699565b505050505062000780565b60008060009054906101000a900473ffffffffffffffffffffffffffffffffffffffff169050816000806101000a81548173ffffffffffffffffffffffffffffffffffffffff021916908373ffffffffffffffffffffffffffffffffffffffff1602179055508173ffffffffffffffffffffffffffffffffffffffff168173ffffffffffffffffffffffffffffffffffffffff167f8be0079c531659141344cd1fd0a4f28419497f9722a3daafe3b4186f6b6457e060405160405180910390a35050565b6000604051905090565b600080fd5b600080fd5b600080fd5b600080fd5b6000601f19601f8301169050919050565b7f4e487b7100000000000000000000000000000000000000000000000000000000600052604160045260246000fd5b6200023d82620001f2565b810181811067ffffffffffffffff821117156200025f576200025e62000203565b5b80604052505050565b600062000274620001d4565b905062000282828262000232565b919050565b600067ffffffffffffffff821115620002a557620002a462000203565b5b620002b082620001f2565b9050602081019050919050565b60005b83811015620002dd578082015181840152602081019050620002c0565b60008484015250505050565b600062000300620002fa8462000287565b62000268565b9050828152602081018484840111156200031f576200031e620001ed565b5b6200032c848285620002bd565b509392505050565b600082601f8301126200034c576200034b620001e8565b5b81516200035e848260208601620002e9565b91505092915050565b60008060408385031215620003815762000380620001de565b5b600083015167ffffffffffffffff811115620003a257620003a1620001e3565b5b620003b08582860162000334565b925050602083015167ffffffffffffffff811115620003d457620003d3620001e3565b5b620003e28582860162000334565b9150509250929050565b600073ffffffffffffffffffffffffffffffffffffffff82169050919050565b60006200041982620003ec565b9050919050565b6200042b816200040c565b82525050565b600060208201905062000448600083018462000420565b92915050565b600081519050919050565b7f4e487b7100000000000000000000000000000000000000000000000000000000600052602260045260246000fd5b60006002820490506001821680620004a157607f821691505b602082108103620004b757620004b662000459565b5b50919050565b60008190508160005260206000209050919050565b60006020601f8301049050919050565b600082821b905092915050565b600060088302620005217fffffffffffffffffffffffffffffffffffffffffffffffffffffffffffffffff82620004e2565b6200052d8683620004e2565b95508019841693508086168417925050509392505050565b6000819050919050565b6000819050919050565b60006200057a620005746200056e8462000545565b6200054f565b62000545565b9050919050565b6000819050919050565b620005968362000559565b620005ae620005a58262000581565b848454620004ef565b825550505050565b600090565b620005c5620005b6565b620005d28184846200058b565b505050565b5b81811015620005fa57620005ee600082620005bb565b600181019050620005d8565b5050565b601f82111562000649576200061381620004bd565b6200061e84620004d2565b810160208510156200062e578190505b620006466200063d85620004d2565b830182620005d7565b50505b505050565b600082821c905092915050565b60006200066e600019846008026200064e565b1980831691505092915050565b60006200068983836200065b565b9150826002028217905092915050565b620006a4826200044e565b67ffffffffffffffff811115620006c057620006bf62000203565b5b620006cc825462000488565b620006d9828285620005fe565b600060209050601f831160018114620007115760008415620006fc578287015190505b6200070885826200067b565b86555062000778565b601f1984166200072186620004bd565b60005b828110156200074b5784890151825560018201915060208501945060208101905062000724565b868310156200076b578489015162000767601f8916826200065b565b8355505b6001600288020188555050505b505050505050565b61284980620007906000396000f3fe608060405234801561001057600080fd5b50600436106101585760003560e01c80636352211e116100c357806395d89b411161007c57806395d89b4114610379578063a22cb46514610397578063b88d4fde146103b3578063c87b56dd146103cf578063e985e9c5146103ff578063f2fde38b1461042f57610158565b80636352211e146102cb5780636a627842146102fb57806370a0823114610317578063715018a6146103475780638456cb59146103515780638da5cb5b1461035b57610158565b806318160ddd1161011557806318160ddd1461023157806323b872dd1461024f5780633f4ba83a1461026b57806342842e0e1461027557806342966c68146102915780635c975abb146102ad57610158565b806301ffc9a71461015d57806302fe53051461018d57806306fdde03146101a9578063081812fc146101c7578063095ea7b3146101f75780631141d7de14610213575b600080fd5b61017760048036038101906101729190611cb4565b61044b565b6040516101849190611cfc565b60405180910390f35b6101a760048036038101906101a29190611e5d565b61052d565b005b6101b1610548565b6040516101be9190611f25565b60405180910390f35b6101e160048036038101906101dc9190611f7d565b6105da565b6040516101ee9190611feb565b60405180910390f35b610211600480360381019061020c9190612032565b6105f6565b005b61021b61060c565b6040516102289190611f25565b60405180910390f35b61023961069a565b6040516102469190612081565b60405180910390f35b6102696004803603810190610264919061209c565b6106a0565b005b6102736106b8565b005b61028f600480360381019061028a919061209c565b6106ca565b005b6102ab60048036038101906102a69190611f7d565b6106ea565b005b6102b5610701565b6040516102c29190611cfc565b60405180910390f35b6102e560048036038101906102e09190611f7d565b610717565b6040516102f29190611feb565b60405180910390f35b610315600480360381019061031091906120ef565b610729565b005b610331600480360381019061032c91906120ef565b610754565b60405161033e9190612081565b60405180910390f35b61034f61080e565b005b610359610822565b005b610363610834565b6040516103709190611feb565b60405180910390f35b61038161085d565b60405161038e9190611f25565b60405180910390f35b6103b160048036038101906103ac9190612148565b6108ef565b005b6103cd60048036038101906103c89190612229565b610905565b005b6103e960048036038101906103e49190611f7d565b61091f565b6040516103f69190611f25565b60405180910390f35b610419600480360381019061041491906122ac565b610988565b6040516104269190611cfc565b60405180910390f35b610449600480360381019061044491906120ef565b610a1c565b005b60007f80ac58cd000000000000000000000000000000000000000000000000000000007bffffffffffffffffffffffffffffffffffffffffffffffffffffffff1916827bffffffffffffffffffffffffffffffffffffffffffffffffffffffff1916148061051657507f5b5e139f000000000000000000000000000000000000000000000000000000007bffffffffffffffffffffffffffffffffffffffffffffffffffffffff1916827bffffffffffffffffffffffffffffffffffffffffffffffffffffffff1916145b80610526575061052582610aa2565b5b9050919050565b610535610b0c565b806008908161054491906124f8565b5050565b6060600280546105579061231b565b80601f01602080910402602001604051908101604052809291908181526020018280546105839061231b565b80156105d05780601f106105a5576101008083540402835291602001916105d0565b820191906000526020600020905b8154815290600101906020018083116105b357829003601f168201915b5050505050905090565b60006105e582610b93565b506105ef82610c1b565b9050919050565b6106088282610603610c58565b610c60565b5050565b600880546106199061231b565b80601f01602080910402602001604051908101604052809291908181526020018280546106459061231b565b80156106925780601f1061066757610100808354040283529160200191610692565b820191906000526020600020905b81548152906001019060200180831161067557829003601f168201915b505050505081565b60095481565b6106a8610c72565b6106b3838383610cb3565b505050565b6106c0610b0c565b6106c8610db5565b565b6106e583838360405180602001604052806000815250610905565b505050565b6106fd6000826106f8610c58565b610e17565b5050565b60008060149054906101000a900460ff16905090565b600061072282610b93565b9050919050565b610731610b0c565b6107518160096000815480929190610748906125f9565b91905055611031565b50565b60008073ffffffffffffffffffffffffffffffffffffffff168273ffffffffffffffffffffffffffffffffffffffff16036107c75760006040517f89c62b640000000000000000000000000000000000000000000000000000000081526004016107be9190611feb565b60405180910390fd5b600560008373ffffffffffffffffffffffffffffffffffffffff1673ffffffffffffffffffffffffffffffffffffffff168152602001908152602001600020549050919050565b610816610b0c565b610820600061104f565b565b61082a610b0c565b610832611113565b565b60008060009054906101000a900473ffffffffffffffffffffffffffffffffffffffff16905090565b60606003805461086c9061231b565b80601f01602080910402602001604051908101604052809291908181526020018280546108989061231b565b80156108e55780601f106108ba576101008083540402835291602001916108e5565b820191906000526020600020905b8154815290600101906020018083116108c857829003601f168201915b5050505050905090565b6109016108fa610c58565b8383611176565b5050565b61090d610c72565b610919848484846112e5565b50505050565b606061092a82610b93565b506000610935611302565b905060008151116109555760405180602001604052806000815250610980565b8061095f84611394565b60405160200161097092919061267d565b6040516020818303038152906040525b915050919050565b6000600760008473ffffffffffffffffffffffffffffffffffffffff1673ffffffffffffffffffffffffffffffffffffffff16815260200190815260200160002060008373ffffffffffffffffffffffffffffffffffffffff1673ffffffffffffffffffffffffffffffffffffffff16815260200190815260200160002060009054906101000a900460ff16905092915050565b610a24610b0c565b600073ffffffffffffffffffffffffffffffffffffffff168173ffffffffffffffffffffffffffffffffffffffff1603610a965760006040517f1e4fbdf7000000000000000000000000000000000000000000000000000000008152600401610a8d9190611feb565b60405180910390fd5b610a9f8161104f565b50565b60007f01ffc9a7000000000000000000000000000000000000000000000000000000007bffffffffffffffffffffffffffffffffffffffffffffffffffffffff1916827bffffffffffffffffffffffffffffffffffffffffffffffffffffffff1916149050919050565b610b14610c58565b73ffffffffffffffffffffffffffffffffffffffff16610b32610834565b73ffffffffffffffffffffffffffffffffffffffff1614610b9157610b55610c58565b6040517f118cdaa7000000000000000000000000000000000000000000000000000000008152600401610b889190611feb565b60405180910390fd5b565b600080610b9f83611462565b9050600073ffffffffffffffffffffffffffffffffffffffff168173ffffffffffffffffffffffffffffffffffffffff1603610c1257826040517f7e273289000000000000000000000000000000000000000000000000000000008152600401610c099190612081565b60405180910390fd5b80915050919050565b60006006600083815260200190815260200160002060009054906101000a900473ffffffffffffffffffffffffffffffffffffffff169050919050565b600033905090565b610c6d838383600161149f565b505050565b610c7a610701565b15610cb1576040517fd93c066500000000000000000000000000000000000000000000000000000000815260040160405180910390fd5b565b600073ffffffffffffffffffffffffffffffffffffffff168273ffffffffffffffffffffffffffffffffffffffff1603610d255760006040517f64a0ae92000000000000000000000000000000000000000000000000000000008152600401610d1c9190611feb565b60405180910390fd5b6000610d398383610d34610c58565b610e17565b90508373ffffffffffffffffffffffffffffffffffffffff168173ffffffffffffffffffffffffffffffffffffffff1614610daf578382826040517f64283d7b000000000000000000000000000000000000000000000000000000008152600401610da6939291906126a1565b60405180910390fd5b50505050565b610dbd611664565b60008060146101000a81548160ff0219169083151502179055507f5db9ee0a495bf2e6ff9c91a7834c1ba4fdd244a5e8aa4e537bd38aeae4b073aa610e00610c58565b604051610e0d9190611feb565b60405180910390a1565b600080610e2384611462565b9050600073ffffffffffffffffffffffffffffffffffffffff168373ffffffffffffffffffffffffffffffffffffffff1614610e6557610e648184866116a4565b5b600073ffffffffffffffffffffffffffffffffffffffff168173ffffffffffffffffffffffffffffffffffffffff1614610ef657610ea760008560008061149f565b6001600560008373ffffffffffffffffffffffffffffffffffffffff1673ffffffffffffffffffffffffffffffffffffffff168152602001908152602001600020600082825403925050819055505b600073ffffffffffffffffffffffffffffffffffffffff168573ffffffffffffffffffffffffffffffffffffffff1614610f79576001600560008773ffffffffffffffffffffffffffffffffffffffff1673ffffffffffffffffffffffffffffffffffffffff168152602001908152602001600020600082825401925050819055505b846004600086815260200190815260200160002060006101000a81548173ffffffffffffffffffffffffffffffffffffffff021916908373ffffffffffffffffffffffffffffffffffffffff160217905550838573ffffffffffffffffffffffffffffffffffffffff168273ffffffffffffffffffffffffffffffffffffffff167fddf252ad1be2c89b69c2b068fc378daa952ba7f163c4a11628f55a4df523b3ef60405160405180910390a4809150509392505050565b61104b828260405180602001604052806000815250611768565b5050565b60008060009054906101000a900473ffffffffffffffffffffffffffffffffffffffff169050816000806101000a81548173ffffffffffffffffffffffffffffffffffffffff021916908373ffffffffffffffffffffffffffffffffffffffff1602179055508173ffffffffffffffffffffffffffffffffffffffff168173ffffffffffffffffffffffffffffffffffffffff167f8be0079c531659141344cd1fd0a4f28419497f9722a3daafe3b4186f6b6457e060405160405180910390a35050565b61111b610c72565b6001600060146101000a81548160ff0219169083151502179055507f62e78cea01bee320cd4e420270b5ea74000d11b0c9f74754ebdbfc544b05a25861115f610c58565b60405161116c9190611feb565b60405180910390a1565b600073ffffffffffffffffffffffffffffffffffffffff168273ffffffffffffffffffffffffffffffffffffffff16036111e757816040517f5b08ba180000000000000000000000000000000000000000000000000000000081526004016111de9190611feb565b60405180910390fd5b80600760008573ffffffffffffffffffffffffffffffffffffffff1673ffffffffffffffffffffffffffffffffffffffff16815260200190815260200160002060008473ffffffffffffffffffffffffffffffffffffffff1673ffffffffffffffffffffffffffffffffffffffff16815260200190815260200160002060006101000a81548160ff0219169083151502179055508173ffffffffffffffffffffffffffffffffffffffff168373ffffffffffffffffffffffffffffffffffffffff167f17307eab39ab6107e8899845ad3d59bd9653f200f220920489ca2b5937696c31836040516112d89190611cfc565b60405180910390a3505050565b6112f08484846106a0565b6112fc84848484611784565b50505050565b6060600880546113119061231b565b80601f016020809104026020016040519081016040528092919081815260200182805461133d9061231b565b801561138a5780601f1061135f5761010080835404028352916020019161138a565b820191906000526020600020905b81548152906001019060200180831161136d57829003601f168201915b5050505050905090565b6060600060016113a38461193b565b01905060008167ffffffffffffffff8111156113c2576113c1611d32565b5b6040519080825280601f01601f1916602001820160405280156113f45781602001600182028036833780820191505090505b509050600082602001820190505b600115611457578080600190039150507f3031323334353637383961626364656600000000000000000000000000000000600a86061a8153600a858161144b5761144a6126d8565b5b04945060008503611402575b819350505050919050565b60006004600083815260200190815260200160002060009054906101000a900473ffffffffffffffffffffffffffffffffffffffff169050919050565b80806114d85750600073ffffffffffffffffffffffffffffffffffffffff168273ffffffffffffffffffffffffffffffffffffffff1614155b1561160c5760006114e884610b93565b9050600073ffffffffffffffffffffffffffffffffffffffff168373ffffffffffffffffffffffffffffffffffffffff161415801561155357508273ffffffffffffffffffffffffffffffffffffffff168173ffffffffffffffffffffffffffffffffffffffff1614155b801561156657506115648184610988565b155b156115a857826040517fa9fbf51f00000000000000000000000000000000000000000000000000000000815260040161159f9190611feb565b60405180910390fd5b811561160a57838573ffffffffffffffffffffffffffffffffffffffff168273ffffffffffffffffffffffffffffffffffffffff167f8c5be1e5ebec7d5bd14f71427d1e84f3dd0314c0f7b2291e5b200ac8c7c3b92560405160405180910390a45b505b836006600085815260200190815260200160002060006101000a81548173ffffffffffffffffffffffffffffffffffffffff021916908373ffffffffffffffffffffffffffffffffffffffff16021790555050505050565b61166c610701565b6116a2576040517f8dfc202b00000000000000000000000000000000000000000000000000000000815260040160405180910390fd5b565b6116af838383611a8e565b61176357600073ffffffffffffffffffffffffffffffffffffffff168373ffffffffffffffffffffffffffffffffffffffff160361172457806040517f7e27328900000000000000000000000000000000000000000000000000000000815260040161171b9190612081565b60405180910390fd5b81816040517f177e802f00000000000000000000000000000000000000000000000000000000815260040161175a929190612707565b60405180910390fd5b505050565b6117728383611b4f565b61177f6000848484611784565b505050565b60008373ffffffffffffffffffffffffffffffffffffffff163b1115611935578273ffffffffffffffffffffffffffffffffffffffff1663150b7a026117c8610c58565b8685856040518563ffffffff1660e01b81526004016117ea9493929190612785565b6020604051808303816000875af192505050801561182657506040513d601f19601f8201168201806040525081019061182391906127e6565b60015b6118aa573d8060008114611856576040519150601f19603f3d011682016040523d82523d6000602084013e61185b565b606091505b5060008151036118a257836040517f64a0ae920000000000000000000000000000000000000000000000000000000081526004016118999190611feb565b60405180910390fd5b805181602001fd5b63150b7a0260e01b7bffffffffffffffffffffffffffffffffffffffffffffffffffffffff1916817bffffffffffffffffffffffffffffffffffffffffffffffffffffffff19161461193357836040517f64a0ae9200000000000000000000000000000000000000000000000000000000815260040161192a9190611feb565b60405180910390fd5b505b50505050565b600080600090507a184f03e93ff9f4daa797ed6e38ed64bf6a1f0100000000000000008310611999577a184f03e93ff9f4daa797ed6e38ed64bf6a1f010000000000000000838161198f5761198e6126d8565b5b0492506040810190505b6d04ee2d6d415b85acef810000000083106119d6576d04ee2d6d415b85acef810000000083816119cc576119cb6126d8565b5b0492506020810190505b662386f26fc100008310611a0557662386f26fc1000083816119fb576119fa6126d8565b5b0492506010810190505b6305f5e1008310611a2e576305f5e1008381611a2457611a236126d8565b5b0492506008810190505b6127108310611a53576127108381611a4957611a486126d8565b5b0492506004810190505b60648310611a765760648381611a6c57611a6b6126d8565b5b0492506002810190505b600a8310611a85576001810190505b80915050919050565b60008073ffffffffffffffffffffffffffffffffffffffff168373ffffffffffffffffffffffffffffffffffffffff1614158015611b4657508273ffffffffffffffffffffffffffffffffffffffff168473ffffffffffffffffffffffffffffffffffffffff161480611b075750611b068484610988565b5b80611b4557508273ffffffffffffffffffffffffffffffffffffffff16611b2d83610c1b565b73ffffffffffffffffffffffffffffffffffffffff16145b5b90509392505050565b600073ffffffffffffffffffffffffffffffffffffffff168273ffffffffffffffffffffffffffffffffffffffff1603611bc15760006040517f64a0ae92000000000000000000000000000000000000000000000000000000008152600401611bb89190611feb565b60405180910390fd5b6000611bcf83836000610e17565b9050600073ffffffffffffffffffffffffffffffffffffffff168173ffffffffffffffffffffffffffffffffffffffff1614611c435760006040517f73c6ac6e000000000000000000000000000000000000000000000000000000008152600401611c3a9190611feb565b60405180910390fd5b505050565b6000604051905090565b600080fd5b600080fd5b60007fffffffff0000000000000000000000000000000000000000000000000000000082169050919050565b611c9181611c5c565b8114611c9c57600080fd5b50565b600081359050611cae81611c88565b92915050565b600060208284031215611cca57611cc9611c52565b5b6000611cd884828501611c9f565b91505092915050565b60008115159050919050565b611cf681611ce1565b82525050565b6000602082019050611d116000830184611ced565b92915050565b600080fd5b600080fd5b6000601f19601f8301169050919050565b7f4e487b7100000000000000000000000000000000000000000000000000000000600052604160045260246000fd5b611d6a82611d21565b810181811067ffffffffffffffff82111715611d8957611d88611d32565b5b80604052505050565b6000611d9c611c48565b9050611da88282611d61565b919050565b600067ffffffffffffffff821115611dc857611dc7611d32565b5b611dd182611d21565b9050602081019050919050565b82818337600083830152505050565b6000611e00611dfb84611dad565b611d92565b905082815260208101848484011115611e1c57611e1b611d1c565b5b611e27848285611dde565b509392505050565b600082601f830112611e4457611e43611d17565b5b8135611e54848260208601611ded565b91505092915050565b600060208284031215611e7357611e72611c52565b5b600082013567ffffffffffffffff811115611e9157611e90611c57565b5b611e9d84828501611e2f565b91505092915050565b600081519050919050565b600082825260208201905092915050565b60005b83811015611ee0578082015181840152602081019050611ec5565b60008484015250505050565b6000611ef782611ea6565b611f018185611eb1565b9350611f11818560208601611ec2565b611f1a81611d21565b840191505092915050565b60006020820190508181036000830152611f3f8184611eec565b905092915050565b6000819050919050565b611f5a81611f47565b8114611f6557600080fd5b50565b600081359050611f7781611f51565b92915050565b600060208284031215611f9357611f92611c52565b5b6000611fa184828501611f68565b91505092915050565b600073ffffffffffffffffffffffffffffffffffffffff82169050919050565b6000611fd582611faa565b9050919050565b611fe581611fca565b82525050565b60006020820190506120006000830184611fdc565b92915050565b61200f81611fca565b811461201a57600080fd5b50565b60008135905061202c81612006565b92915050565b6000806040838503121561204957612048611c52565b5b60006120578582860161201d565b925050602061206885828601611f68565b9150509250929050565b61207b81611f47565b82525050565b60006020820190506120966000830184612072565b92915050565b6000806000606084860312156120b5576120b4611c52565b5b60006120c38682870161201d565b93505060206120d48682870161201d565b92505060406120e586828701611f68565b9150509250925092565b60006020828403121561210557612104611c52565b5b60006121138482850161201d565b91505092915050565b61212581611ce1565b811461213057600080fd5b50565b6000813590506121428161211c565b92915050565b6000806040838503121561215f5761215e611c52565b5b600061216d8582860161201d565b925050602061217e85828601612133565b9150509250929050565b600067ffffffffffffffff8211156121a3576121a2611d32565b5b6121ac82611d21565b9050602081019050919050565b60006121cc6121c784612188565b611d92565b9050828152602081018484840111156121e8576121e7611d1c565b5b6121f3848285611dde565b509392505050565b600082601f8301126122105761220f611d17565b5b81356122208482602086016121b9565b91505092915050565b6000806000806080858703121561224357612242611c52565b5b60006122518782880161201d565b94505060206122628782880161201d565b935050604061227387828801611f68565b925050606085013567ffffffffffffffff81111561229457612293611c57565b5b6122a0878288016121fb565b91505092959194509250565b600080604083850312156122c3576122c2611c52565b5b60006122d18582860161201d565b92505060206122e28582860161201d565b9150509250929050565b7f4e487b7100000000000000000000000000000000000000000000000000000000600052602260045260246000fd5b6000600282049050600182168061233357607f821691505b602082108103612346576123456122ec565b5b50919050565b60008190508160005260206000209050919050565b60006020601f8301049050919050565b600082821b905092915050565b6000600883026123ae7fffffffffffffffffffffffffffffffffffffffffffffffffffffffffffffffff82612371565b6123b88683612371565b95508019841693508086168417925050509392505050565b6000819050919050565b60006123f56123f06123eb84611f47565b6123d0565b611f47565b9050919050565b6000819050919050565b61240f836123da565b61242361241b826123fc565b84845461237e565b825550505050565b600090565b61243861242b565b612443818484612406565b505050565b5b818110156124675761245c600082612430565b600181019050612449565b5050565b601f8211156124ac5761247d8161234c565b61248684612361565b81016020851015612495578190505b6124a96124a185612361565b830182612448565b50505b505050565b600082821c905092915050565b60006124cf600019846008026124b1565b1980831691505092915050565b60006124e883836124be565b9150826002028217905092915050565b61250182611ea6565b67ffffffffffffffff81111561251a57612519611d32565b5b612524825461231b565b61252f82828561246b565b600060209050601f8311600181146125625760008415612550578287015190505b61255a85826124dc565b8655506125c2565b601f1984166125708661234c565b60005b8281101561259857848901518255600182019150602085019450602081019050612573565b868310156125b557848901516125b1601f8916826124be565b8355505b6001600288020188555050505b505050505050565b7f4e487b7100000000000000000000000000000000000000000000000000000000600052601160045260246000fd5b600061260482611f47565b91507fffffffffffffffffffffffffffffffffffffffffffffffffffffffffffffffff8203612636576126356125ca565b5b600182019050919050565b600081905092915050565b600061265782611ea6565b6126618185612641565b9350612671818560208601611ec2565b80840191505092915050565b6000612689828561264c565b9150612695828461264c565b91508190509392505050565b60006060820190506126b66000830186611fdc565b6126c36020830185612072565b6126d06040830184611fdc565b949350505050565b7f4e487b7100000000000000000000000000000000000000000000000000000000600052601260045260246000fd5b600060408201905061271c6000830185611fdc565b6127296020830184612072565b9392505050565b600081519050919050565b600082825260208201905092915050565b600061275782612730565b612761818561273b565b9350612771818560208601611ec2565b61277a81611d21565b840191505092915050565b600060808201905061279a6000830187611fdc565b6127a76020830186611fdc565b6127b46040830185612072565b81810360608301526127c6818461274c565b905095945050505050565b6000815190506127e081611c88565b92915050565b6000602082840312156127fc576127fb611c52565b5b600061280a848285016127d1565b9150509291505056fea2646970667358221220a2de761dc222a5ae15d7286710a44fc4ed606b1d95601ec0d3a171595bfb68c964736f6c63430008180033",
  "devdoc": {
    "errors": {
      "ERC721IncorrectOwner(address,uint256,address)": [
        {
          "details": "Indicates an error related to the ownership over a particular token. Used in transfers.",
          "params": {
            "owner": "Address of the current owner of a token.",
            "sender": "Address whose tokens are being transferred.",
            "tokenId": "Identifier number of a token."
          }
        }
      ],
      "ERC721InsufficientApproval(address,uint256)": [
        {
          "details": "Indicates a failure with the `operator`s approval. Used in transfers.",
          "params": {
            "operator": "Address that may be allowed to operate on tokens without being their owner.",
            "tokenId": "Identifier number of a token."
          }
        }
      ],
      "ERC721InvalidApprover(address)": [
        {
          "details": "Indicates a failure with the `approver` of a token to be approved. Used in approvals.",
          "params": {
            "approver": "Address initiating an approval operation."
          }
        }
      ],
      "ERC721InvalidOperator(address)": [
        {
          "details": "Indicates a failure with the `operator` to be approved. Used in approvals.",
          "params": {
            "operator": "Address that may be allowed to operate on tokens without being their owner."
          }
        }
      ],
      "ERC721InvalidOwner(address)": [
        {
          "details": "Indicates that an address can't be an owner. For example, `address(0)` is a forbidden owner in EIP-20. Used in balance queries.",
          "params": {
            "owner": "Address of the current owner of a token."
          }
        }
      ],
      "ERC721InvalidReceiver(address)": [
        {
          "details": "Indicates a failure with the token `receiver`. Used in transfers.",
          "params": {
            "receiver": "Address to which tokens are being transferred."
          }
        }
      ],
      "ERC721InvalidSender(address)": [
        {
          "details": "Indicates a failure with the token `sender`. Used in transfers.",
          "params": {
            "sender": "Address whose tokens are being transferred."
          }
        }
      ],
      "ERC721NonexistentToken(uint256)": [
        {
          "details": "Indicates a `tokenId` whose `owner` is the zero address.",
          "params": {
            "tokenId": "Identifier number of a token."
          }
        }
      ],
      "EnforcedPause()": [
        {
          "details": "The operation failed because the contract is paused."
        }
      ],
      "ExpectedPause()": [
        {
          "details": "The operation failed because the contract is not paused."
        }
      ],
      "OwnableInvalidOwner(address)": [
        {
          "details": "The owner is not a valid owner account. (eg. `address(0)`)"
        }
      ],
      "OwnableUnauthorizedAccount(address)": [
        {
          "details": "The caller account is not authorized to perform an operation."
        }
      ],
      "ReentrancyGuardReentrantCall()": [
        {
          "details": "Unauthorized reentrant call."
        }
      ]
    },
    "events": {
      "Approval(address,address,uint256)": {
        "details": "Emitted when `owner` enables `approved` to manage the `tokenId` token."
      },
      "ApprovalForAll(address,address,bool)": {
        "details": "Emitted when `owner` enables or disables (`approved`) `operator` to manage all of its assets."
      },
      "Paused(address)": {
        "details": "Emitted when the pause is triggered by `account`."
      },
      "Transfer(address,address,uint256)": {
        "details": "Emitted when `tokenId` token is transferred from `from` to `to`."
      },
      "Unpaused(address)": {
        "details": "Emitted when the pause is lifted by `account`."
      }
    },
    "kind": "dev",
    "methods": {
      "approve(address,uint256)": {
        "details": "See {IERC721-approve}."
      },
      "balanceOf(address)": {
        "details": "See {IERC721-balanceOf}."
      },
      "burn(uint256)": {
        "details": "Burns `tokenId`. See {ERC721-_burn}. Requirements: - The caller must own `tokenId` or be an approved operator."
      },
      "getApproved(uint256)": {
        "details": "See {IERC721-getApproved}."
      },
      "isApprovedForAll(address,address)": {
        "details": "See {IERC721-isApprovedForAll}."
      },
      "name()": {
        "details": "See {IERC721Metadata-name}."
      },
      "owner()": {
        "details": "Returns the address of the current owner."
      },
      "ownerOf(uint256)": {
        "details": "See {IERC721-ownerOf}."
      },
      "paused()": {
        "details": "Returns true if the contract is paused, and false otherwise."
      },
      "renounceOwnership()": {
        "details": "Leaves the contract without owner. It will not be possible to call `onlyOwner` functions. Can only be called by the current owner. NOTE: Renouncing ownership will leave the contract without an owner, thereby disabling any functionality that is only available to the owner."
      },
      "safeTransferFrom(address,address,uint256)": {
        "details": "See {IERC721-safeTransferFrom}."
      },
      "setApprovalForAll(address,bool)": {
        "details": "See {IERC721-setApprovalForAll}."
      },
      "supportsInterface(bytes4)": {
        "details": "See {IERC165-supportsInterface}."
      },
      "symbol()": {
        "details": "See {IERC721Metadata-symbol}."
      },
      "tokenURI(uint256)": {
        "details": "See {IERC721Metadata-tokenURI}."
      },
      "transferFrom(address,address,uint256)": {
        "details": "See {IERC721-transferFrom}."
      },
      "transferOwnership(address)": {
        "details": "Transfers ownership of the contract to a new account (`newOwner`). Can only be called by the current owner."
      }
    },
    "version": 1
  },
  "userdoc": {
    "kind": "user",
    "methods": {},
    "version": 1
  },
  "storageLayout": {
    "storage": [
      {
        "astId": 8,
        "contract": "contracts/Robot.sol:Robot",
        "label": "_owner",
        "offset": 0,
        "slot": "0",
        "type": "t_address"
      },
      {
        "astId": 1524,
        "contract": "contracts/Robot.sol:Robot",
        "label": "_paused",
        "offset": 20,
        "slot": "0",
        "type": "t_bool"
      },
      {
        "astId": 1643,
        "contract": "contracts/Robot.sol:Robot",
        "label": "_status",
        "offset": 0,
        "slot": "1",
        "type": "t_uint256"
      },
      {
        "astId": 317,
        "contract": "contracts/Robot.sol:Robot",
        "label": "_name",
        "offset": 0,
        "slot": "2",
        "type": "t_string_storage"
      },
      {
        "astId": 319,
        "contract": "contracts/Robot.sol:Robot",
        "label": "_symbol",
        "offset": 0,
        "slot": "3",
        "type": "t_string_storage"
      },
      {
        "astId": 323,
        "contract": "contracts/Robot.sol:Robot",
        "label": "_owners",
        "offset": 0,
        "slot": "4",
        "type": "t_mapping(t_uint256,t_address)"
      },
      {
        "astId": 327,
        "contract": "contracts/Robot.sol:Robot",
        "label": "_balances",
        "offset": 0,
        "slot": "5",
        "type": "t_mapping(t_address,t_uint256)"
      },
      {
        "astId": 331,
        "contract": "contracts/Robot.sol:Robot",
        "label": "_tokenApprovals",
        "offset": 0,
        "slot": "6",
        "type": "t_mapping(t_uint256,t_address)"
      },
      {
        "astId": 337,
        "contract": "contracts/Robot.sol:Robot",
        "label": "_operatorApprovals",
        "offset": 0,
        "slot": "7",
        "type": "t_mapping(t_address,t_mapping(t_address,t_bool))"
      },
      {
        "astId": 3168,
        "contract": "contracts/Robot.sol:Robot",
        "label": "URI",
        "offset": 0,
        "slot": "8",
        "type": "t_string_storage"
      },
      {
        "astId": 3170,
        "contract": "contracts/Robot.sol:Robot",
        "label": "totalSupply",
        "offset": 0,
        "slot": "9",
        "type": "t_uint256"
      }
    ],
    "types": {
      "t_address": {
        "encoding": "inplace",
        "label": "address",
        "numberOfBytes": "20"
      },
      "t_bool": {
        "encoding": "inplace",
        "label": "bool",
        "numberOfBytes": "1"
      },
      "t_mapping(t_address,t_bool)": {
        "encoding": "mapping",
        "key": "t_address",
        "label": "mapping(address => bool)",
        "numberOfBytes": "32",
        "value": "t_bool"
      },
      "t_mapping(t_address,t_mapping(t_address,t_bool))": {
        "encoding": "mapping",
        "key": "t_address",
        "label": "mapping(address => mapping(address => bool))",
        "numberOfBytes": "32",
        "value": "t_mapping(t_address,t_bool)"
      },
      "t_mapping(t_address,t_uint256)": {
        "encoding": "mapping",
        "key": "t_address",
        "label": "mapping(address => uint256)",
        "numberOfBytes": "32",
        "value": "t_uint256"
      },
      "t_mapping(t_uint256,t_address)": {
        "encoding": "mapping",
        "key": "t_uint256",
        "label": "mapping(uint256 => address)",
        "numberOfBytes": "32",
        "value": "t_address"
      },
      "t_string_storage": {
        "encoding": "bytes",
        "label": "string",
        "numberOfBytes": "32"
      },
      "t_uint256": {
        "encoding": "inplace",
        "label": "uint256",
        "numberOfBytes": "32"
      }
    }
  }
}